{
  "_format": "hh-sol-artifact-1",
  "contractName": "CredentialManager",
  "sourceName": "contracts/CredentialManager.sol",
  "abi": [
    {
      "inputs": [],
      "stateMutability": "nonpayable",
      "type": "constructor"
    },
    {
      "anonymous": false,
      "inputs": [
        {
          "indexed": true,
          "internalType": "uint256",
          "name": "credentialId",
          "type": "uint256"
        },
        {
          "indexed": true,
          "internalType": "address",
          "name": "issuedTo",
          "type": "address"
        },
        {
          "indexed": false,
          "internalType": "string",
          "name": "details",
          "type": "string"
        }
      ],
      "name": "CredentialIssued",
      "type": "event"
    },
    {
      "anonymous": false,
      "inputs": [
        {
          "indexed": true,
          "internalType": "uint256",
          "name": "credentialId",
          "type": "uint256"
        },
        {
          "indexed": true,
          "internalType": "address",
          "name": "revokedBy",
          "type": "address"
        }
      ],
      "name": "CredentialRevoked",
      "type": "event"
    },
    {
      "inputs": [],
      "name": "admin",
      "outputs": [
        {
          "internalType": "address",
          "name": "",
          "type": "address"
        }
      ],
      "stateMutability": "view",
      "type": "function"
    },
    {
      "inputs": [
        {
          "internalType": "uint256",
          "name": "",
          "type": "uint256"
        }
      ],
      "name": "credentials",
      "outputs": [
        {
          "internalType": "uint256",
          "name": "credentialId",
          "type": "uint256"
        },
        {
          "internalType": "address",
          "name": "issuedTo",
          "type": "address"
        },
        {
          "internalType": "string",
          "name": "details",
          "type": "string"
        },
        {
          "internalType": "bool",
          "name": "isRevoked",
          "type": "bool"
        }
      ],
      "stateMutability": "view",
      "type": "function"
    },
    {
      "inputs": [
        {
          "internalType": "uint256",
          "name": "_credentialId",
          "type": "uint256"
        }
      ],
      "name": "getCredentialDetails",
      "outputs": [
        {
          "internalType": "uint256",
          "name": "",
          "type": "uint256"
        },
        {
          "internalType": "address",
          "name": "",
          "type": "address"
        },
        {
          "internalType": "string",
          "name": "",
          "type": "string"
        },
        {
          "internalType": "bool",
          "name": "",
          "type": "bool"
        }
      ],
      "stateMutability": "view",
      "type": "function"
    },
    {
      "inputs": [
        {
          "internalType": "uint256",
          "name": "_credentialId",
          "type": "uint256"
        }
      ],
      "name": "isCredentialRevoked",
      "outputs": [
        {
          "internalType": "bool",
          "name": "",
          "type": "bool"
        }
      ],
      "stateMutability": "view",
      "type": "function"
    },
    {
      "inputs": [
        {
          "internalType": "uint256",
          "name": "_credentialId",
          "type": "uint256"
        },
        {
          "internalType": "address",
          "name": "_issuedTo",
          "type": "address"
        },
        {
          "internalType": "string",
          "name": "_details",
          "type": "string"
        }
      ],
      "name": "issueCredential",
      "outputs": [],
      "stateMutability": "nonpayable",
      "type": "function"
    },
    {
      "inputs": [
        {
          "internalType": "uint256",
          "name": "_credentialId",
          "type": "uint256"
        }
      ],
      "name": "revokeCredential",
      "outputs": [],
      "stateMutability": "nonpayable",
      "type": "function"
    }
  ],
  "bytecode": "0x608060405234801561001057600080fd5b50336000806101000a81548173ffffffffffffffffffffffffffffffffffffffff021916908373ffffffffffffffffffffffffffffffffffffffff160217905550611135806100606000396000f3fe608060405234801561001057600080fd5b50600436106100625760003560e01c80630cd83c58146100675780631b87278d1461009a57806369ea82c2146100b6578063e0574e3f146100d2578063f43d8acc14610105578063f851a44014610135575b600080fd5b610081600480360381019061007c91906108af565b610153565b60405161009194939291906109d7565b60405180910390f35b6100b460048036038101906100af91906108af565b610305565b005b6100d060048036038101906100cb9190610b84565b6104c5565b005b6100ec60048036038101906100e791906108af565b6106d7565b6040516100fc94939291906109d7565b60405180910390f35b61011f600480360381019061011a91906108af565b6107bc565b60405161012c9190610bf3565b60405180910390f35b61013d610841565b60405161014a9190610c0e565b60405180910390f35b60008060606000806001600087815260200190815260200160002060000154036101b2576040517f08c379a00000000000000000000000000000000000000000000000000000000081526004016101a990610c75565b60405180910390fd5b600060016000878152602001908152602001600020604051806080016040529081600082015481526020016001820160009054906101000a900473ffffffffffffffffffffffffffffffffffffffff1673ffffffffffffffffffffffffffffffffffffffff1673ffffffffffffffffffffffffffffffffffffffff16815260200160028201805461024290610cc4565b80601f016020809104026020016040519081016040528092919081815260200182805461026e90610cc4565b80156102bb5780601f10610290576101008083540402835291602001916102bb565b820191906000526020600020905b81548152906001019060200180831161029e57829003601f168201915b505050505081526020016003820160009054906101000a900460ff161515151581525050905080600001518160200151826040015183606001519450945094509450509193509193565b60008054906101000a900473ffffffffffffffffffffffffffffffffffffffff1673ffffffffffffffffffffffffffffffffffffffff163373ffffffffffffffffffffffffffffffffffffffff1614610393576040517f08c379a000000000000000000000000000000000000000000000000000000000815260040161038a90610d67565b60405180910390fd5b60006001600083815260200190815260200160002060000154036103ec576040517f08c379a00000000000000000000000000000000000000000000000000000000081526004016103e390610c75565b60405180910390fd5b6001600082815260200190815260200160002060030160009054906101000a900460ff1615610450576040517f08c379a000000000000000000000000000000000000000000000000000000000815260040161044790610dd3565b60405180910390fd5b600180600083815260200190815260200160002060030160006101000a81548160ff0219169083151502179055503373ffffffffffffffffffffffffffffffffffffffff16817f936526f4a3155895d9f01699716f2e0c548d726a24a1437e5ce92b3dacaad35b60405160405180910390a350565b60008054906101000a900473ffffffffffffffffffffffffffffffffffffffff1673ffffffffffffffffffffffffffffffffffffffff163373ffffffffffffffffffffffffffffffffffffffff1614610553576040517f08c379a000000000000000000000000000000000000000000000000000000000815260040161054a90610d67565b60405180910390fd5b60006001600085815260200190815260200160002060000154146105ac576040517f08c379a00000000000000000000000000000000000000000000000000000000081526004016105a390610e3f565b60405180910390fd5b60405180608001604052808481526020018373ffffffffffffffffffffffffffffffffffffffff16815260200182815260200160001515815250600160008581526020019081526020016000206000820151816000015560208201518160010160006101000a81548173ffffffffffffffffffffffffffffffffffffffff021916908373ffffffffffffffffffffffffffffffffffffffff160217905550604082015181600201908161065f919061100b565b5060608201518160030160006101000a81548160ff0219169083151502179055509050508173ffffffffffffffffffffffffffffffffffffffff16837ff03729c4e45d56313830b69839594a662bd953079e350899f22c95272f29567f836040516106ca91906110dd565b60405180910390a3505050565b60016020528060005260406000206000915090508060000154908060010160009054906101000a900473ffffffffffffffffffffffffffffffffffffffff169080600201805461072690610cc4565b80601f016020809104026020016040519081016040528092919081815260200182805461075290610cc4565b801561079f5780601f106107745761010080835404028352916020019161079f565b820191906000526020600020905b81548152906001019060200180831161078257829003601f168201915b5050505050908060030160009054906101000a900460ff16905084565b600080600160008481526020019081526020016000206000015403610816576040517f08c379a000000000000000000000000000000000000000000000000000000000815260040161080d90610c75565b60405180910390fd5b6001600083815260200190815260200160002060030160009054906101000a900460ff169050919050565b60008054906101000a900473ffffffffffffffffffffffffffffffffffffffff1681565b6000604051905090565b600080fd5b600080fd5b6000819050919050565b61088c81610879565b811461089757600080fd5b50565b6000813590506108a981610883565b92915050565b6000602082840312156108c5576108c461086f565b5b60006108d38482850161089a565b91505092915050565b6108e581610879565b82525050565b600073ffffffffffffffffffffffffffffffffffffffff82169050919050565b6000610916826108eb565b9050919050565b6109268161090b565b82525050565b600081519050919050565b600082825260208201905092915050565b60005b8381101561096657808201518184015260208101905061094b565b60008484015250505050565b6000601f19601f8301169050919050565b600061098e8261092c565b6109988185610937565b93506109a8818560208601610948565b6109b181610972565b840191505092915050565b60008115159050919050565b6109d1816109bc565b82525050565b60006080820190506109ec60008301876108dc565b6109f9602083018661091d565b8181036040830152610a0b8185610983565b9050610a1a60608301846109c8565b95945050505050565b610a2c8161090b565b8114610a3757600080fd5b50565b600081359050610a4981610a23565b92915050565b600080fd5b600080fd5b7f4e487b7100000000000000000000000000000000000000000000000000000000600052604160045260246000fd5b610a9182610972565b810181811067ffffffffffffffff82111715610ab057610aaf610a59565b5b80604052505050565b6000610ac3610865565b9050610acf8282610a88565b919050565b600067ffffffffffffffff821115610aef57610aee610a59565b5b610af882610972565b9050602081019050919050565b82818337600083830152505050565b6000610b27610b2284610ad4565b610ab9565b905082815260208101848484011115610b4357610b42610a54565b5b610b4e848285610b05565b509392505050565b600082601f830112610b6b57610b6a610a4f565b5b8135610b7b848260208601610b14565b91505092915050565b600080600060608486031215610b9d57610b9c61086f565b5b6000610bab8682870161089a565b9350506020610bbc86828701610a3a565b925050604084013567ffffffffffffffff811115610bdd57610bdc610874565b5b610be986828701610b56565b9150509250925092565b6000602082019050610c0860008301846109c8565b92915050565b6000602082019050610c23600083018461091d565b92915050565b7f43726564656e7469616c20646f6573206e6f742065786973742e000000000000600082015250565b6000610c5f601a83610937565b9150610c6a82610c29565b602082019050919050565b60006020820190508181036000830152610c8e81610c52565b9050919050565b7f4e487b7100000000000000000000000000000000000000000000000000000000600052602260045260246000fd5b60006002820490506001821680610cdc57607f821691505b602082108103610cef57610cee610c95565b5b50919050565b7f4f6e6c792061646d696e2063616e20706572666f726d2074686973206163746960008201527f6f6e2e0000000000000000000000000000000000000000000000000000000000602082015250565b6000610d51602383610937565b9150610d5c82610cf5565b604082019050919050565b60006020820190508181036000830152610d8081610d44565b9050919050565b7f43726564656e7469616c20697320616c7265616479207265766f6b65642e0000600082015250565b6000610dbd601e83610937565b9150610dc882610d87565b602082019050919050565b60006020820190508181036000830152610dec81610db0565b9050919050565b7f43726564656e7469616c20616c7265616479206578697374732e000000000000600082015250565b6000610e29601a83610937565b9150610e3482610df3565b602082019050919050565b60006020820190508181036000830152610e5881610e1c565b9050919050565b60008190508160005260206000209050919050565b60006020601f8301049050919050565b600082821b905092915050565b600060088302610ec17fffffffffffffffffffffffffffffffffffffffffffffffffffffffffffffffff82610e84565b610ecb8683610e84565b95508019841693508086168417925050509392505050565b6000819050919050565b6000610f08610f03610efe84610879565b610ee3565b610879565b9050919050565b6000819050919050565b610f2283610eed565b610f36610f2e82610f0f565b848454610e91565b825550505050565b600090565b610f4b610f3e565b610f56818484610f19565b505050565b5b81811015610f7a57610f6f600082610f43565b600181019050610f5c565b5050565b601f821115610fbf57610f9081610e5f565b610f9984610e74565b81016020851015610fa8578190505b610fbc610fb485610e74565b830182610f5b565b50505b505050565b600082821c905092915050565b6000610fe260001984600802610fc4565b1980831691505092915050565b6000610ffb8383610fd1565b9150826002028217905092915050565b6110148261092c565b67ffffffffffffffff81111561102d5761102c610a59565b5b6110378254610cc4565b611042828285610f7e565b600060209050601f8311600181146110755760008415611063578287015190505b61106d8582610fef565b8655506110d5565b601f19841661108386610e5f565b60005b828110156110ab57848901518255600182019150602085019450602081019050611086565b868310156110c857848901516110c4601f891682610fd1565b8355505b6001600288020188555050505b505050505050565b600060208201905081810360008301526110f78184610983565b90509291505056fea2646970667358221220ef2618ec64ef50f5662ae325996ed0a02e6be314ccb1c8f70b5afd7ed564e11c64736f6c63430008130033",
  "linkReferences": {},
  "deployedLinkReferences": {}
}